{
  "contractName": "NFT",
  "abi": [
    {
      "inputs": [
        {
          "internalType": "string",
          "name": "uri_",
          "type": "string"
        }
      ],
      "stateMutability": "payable",
      "type": "constructor"
    },
    {
      "anonymous": false,
      "inputs": [
        {
          "indexed": true,
          "internalType": "address",
          "name": "owner",
          "type": "address"
        },
        {
          "indexed": true,
          "internalType": "address",
          "name": "approved",
          "type": "address"
        },
        {
          "indexed": true,
          "internalType": "uint256",
          "name": "tokenId",
          "type": "uint256"
        }
      ],
      "name": "Approval",
      "type": "event"
    },
    {
      "anonymous": false,
      "inputs": [
        {
          "indexed": true,
          "internalType": "address",
          "name": "owner",
          "type": "address"
        },
        {
          "indexed": true,
          "internalType": "address",
          "name": "operator",
          "type": "address"
        },
        {
          "indexed": false,
          "internalType": "bool",
          "name": "approved",
          "type": "bool"
        }
      ],
      "name": "ApprovalForAll",
      "type": "event"
    },
    {
      "anonymous": false,
      "inputs": [
        {
          "indexed": true,
          "internalType": "address",
          "name": "previousOwner",
          "type": "address"
        },
        {
          "indexed": true,
          "internalType": "address",
          "name": "newOwner",
          "type": "address"
        }
      ],
      "name": "OwnershipTransferred",
      "type": "event"
    },
    {
      "anonymous": false,
      "inputs": [
        {
          "indexed": true,
          "internalType": "address",
          "name": "from",
          "type": "address"
        },
        {
          "indexed": true,
          "internalType": "address",
          "name": "to",
          "type": "address"
        },
        {
          "indexed": true,
          "internalType": "uint256",
          "name": "tokenId",
          "type": "uint256"
        }
      ],
      "name": "Transfer",
      "type": "event"
    },
    {
      "inputs": [
        {
          "internalType": "address",
          "name": "to",
          "type": "address"
        },
        {
          "internalType": "uint256",
          "name": "tokenId",
          "type": "uint256"
        }
      ],
      "name": "approve",
      "outputs": [],
      "stateMutability": "nonpayable",
      "type": "function"
    },
    {
      "inputs": [
        {
          "internalType": "address",
          "name": "owner",
          "type": "address"
        }
      ],
      "name": "balanceOf",
      "outputs": [
        {
          "internalType": "uint256",
          "name": "",
          "type": "uint256"
        }
      ],
      "stateMutability": "view",
      "type": "function"
    },
    {
      "inputs": [
        {
          "internalType": "uint256",
          "name": "tokenId",
          "type": "uint256"
        }
      ],
      "name": "getApproved",
      "outputs": [
        {
          "internalType": "address",
          "name": "",
          "type": "address"
        }
      ],
      "stateMutability": "view",
      "type": "function"
    },
    {
      "inputs": [
        {
          "internalType": "address",
          "name": "owner",
          "type": "address"
        },
        {
          "internalType": "address",
          "name": "operator",
          "type": "address"
        }
      ],
      "name": "isApprovedForAll",
      "outputs": [
        {
          "internalType": "bool",
          "name": "",
          "type": "bool"
        }
      ],
      "stateMutability": "view",
      "type": "function"
    },
    {
      "inputs": [],
      "name": "maxMintPerWallet",
      "outputs": [
        {
          "internalType": "uint256",
          "name": "",
          "type": "uint256"
        }
      ],
      "stateMutability": "view",
      "type": "function"
    },
    {
      "inputs": [],
      "name": "maxSupply",
      "outputs": [
        {
          "internalType": "uint256",
          "name": "",
          "type": "uint256"
        }
      ],
      "stateMutability": "view",
      "type": "function"
    },
    {
      "inputs": [
        {
          "internalType": "address",
          "name": "",
          "type": "address"
        }
      ],
      "name": "mintPerWallet",
      "outputs": [
        {
          "internalType": "uint256",
          "name": "",
          "type": "uint256"
        }
      ],
      "stateMutability": "view",
      "type": "function"
    },
    {
      "inputs": [],
      "name": "mintPrice",
      "outputs": [
        {
          "internalType": "uint256",
          "name": "",
          "type": "uint256"
        }
      ],
      "stateMutability": "view",
      "type": "function"
    },
    {
      "inputs": [],
      "name": "name",
      "outputs": [
        {
          "internalType": "string",
          "name": "",
          "type": "string"
        }
      ],
      "stateMutability": "view",
      "type": "function"
    },
    {
      "inputs": [],
      "name": "owner",
      "outputs": [
        {
          "internalType": "address",
          "name": "",
          "type": "address"
        }
      ],
      "stateMutability": "view",
      "type": "function"
    },
    {
      "inputs": [
        {
          "internalType": "uint256",
          "name": "tokenId",
          "type": "uint256"
        }
      ],
      "name": "ownerOf",
      "outputs": [
        {
          "internalType": "address",
          "name": "",
          "type": "address"
        }
      ],
      "stateMutability": "view",
      "type": "function"
    },
    {
      "inputs": [],
      "name": "renounceOwnership",
      "outputs": [],
      "stateMutability": "nonpayable",
      "type": "function"
    },
    {
      "inputs": [
        {
          "internalType": "address",
          "name": "from",
          "type": "address"
        },
        {
          "internalType": "address",
          "name": "to",
          "type": "address"
        },
        {
          "internalType": "uint256",
          "name": "tokenId",
          "type": "uint256"
        }
      ],
      "name": "safeTransferFrom",
      "outputs": [],
      "stateMutability": "nonpayable",
      "type": "function"
    },
    {
      "inputs": [
        {
          "internalType": "address",
          "name": "from",
          "type": "address"
        },
        {
          "internalType": "address",
          "name": "to",
          "type": "address"
        },
        {
          "internalType": "uint256",
          "name": "tokenId",
          "type": "uint256"
        },
        {
          "internalType": "bytes",
          "name": "data",
          "type": "bytes"
        }
      ],
      "name": "safeTransferFrom",
      "outputs": [],
      "stateMutability": "nonpayable",
      "type": "function"
    },
    {
      "inputs": [
        {
          "internalType": "address",
          "name": "operator",
          "type": "address"
        },
        {
          "internalType": "bool",
          "name": "approved",
          "type": "bool"
        }
      ],
      "name": "setApprovalForAll",
      "outputs": [],
      "stateMutability": "nonpayable",
      "type": "function"
    },
    {
      "inputs": [
        {
          "internalType": "bytes4",
          "name": "interfaceId",
          "type": "bytes4"
        }
      ],
      "name": "supportsInterface",
      "outputs": [
        {
          "internalType": "bool",
          "name": "",
          "type": "bool"
        }
      ],
      "stateMutability": "view",
      "type": "function"
    },
    {
      "inputs": [],
      "name": "symbol",
      "outputs": [
        {
          "internalType": "string",
          "name": "",
          "type": "string"
        }
      ],
      "stateMutability": "view",
      "type": "function"
    },
    {
      "inputs": [],
      "name": "totalMinted",
      "outputs": [
        {
          "internalType": "uint256",
          "name": "",
          "type": "uint256"
        }
      ],
      "stateMutability": "view",
      "type": "function"
    },
    {
      "inputs": [
        {
          "internalType": "address",
          "name": "from",
          "type": "address"
        },
        {
          "internalType": "address",
          "name": "to",
          "type": "address"
        },
        {
          "internalType": "uint256",
          "name": "tokenId",
          "type": "uint256"
        }
      ],
      "name": "transferFrom",
      "outputs": [],
      "stateMutability": "nonpayable",
      "type": "function"
    },
    {
      "inputs": [
        {
          "internalType": "address",
          "name": "newOwner",
          "type": "address"
        }
      ],
      "name": "transferOwnership",
      "outputs": [],
      "stateMutability": "nonpayable",
      "type": "function"
    },
    {
      "inputs": [],
      "name": "withdrawWallet",
      "outputs": [
        {
          "internalType": "address payable",
          "name": "",
          "type": "address"
        }
      ],
      "stateMutability": "view",
      "type": "function"
    },
    {
      "inputs": [
        {
          "internalType": "uint256",
          "name": "tokenId_",
          "type": "uint256"
        }
      ],
      "name": "tokenURI",
      "outputs": [
        {
          "internalType": "string",
          "name": "",
          "type": "string"
        }
      ],
      "stateMutability": "view",
      "type": "function"
    },
    {
      "inputs": [],
      "name": "withdraw",
      "outputs": [],
      "stateMutability": "nonpayable",
      "type": "function"
    },
    {
      "inputs": [
        {
          "internalType": "uint256",
          "name": "quantity_",
          "type": "uint256"
        },
        {
          "internalType": "uint256",
          "name": "tokenId",
          "type": "uint256"
        }
      ],
      "name": "mint",
      "outputs": [],
      "stateMutability": "payable",
      "type": "function"
    }
  ],
  "bytecode": "0x6080604052604051620038733803806200387383398181016040528101906200002991906200035f565b6040518060400160405280600981526020017f4379626572626f747300000000000000000000000000000000000000000000008152506040518060400160405280600381526020017f43425400000000000000000000000000000000000000000000000000000000008152508160009080519060200190620000ad9291906200023d565b508060019080519060200190620000c69291906200023d565b505050620000e9620000dd6200016f60201b60201c565b6200017760201b60201c565b6509184e72a0006007819055506000600881905550600a6009819055506002600a8190555080600b9080519060200190620001269291906200023d565b5033600c60006101000a81548173ffffffffffffffffffffffffffffffffffffffff021916908373ffffffffffffffffffffffffffffffffffffffff1602179055505062000514565b600033905090565b6000600660009054906101000a900473ffffffffffffffffffffffffffffffffffffffff16905081600660006101000a81548173ffffffffffffffffffffffffffffffffffffffff021916908373ffffffffffffffffffffffffffffffffffffffff1602179055508173ffffffffffffffffffffffffffffffffffffffff168173ffffffffffffffffffffffffffffffffffffffff167f8be0079c531659141344cd1fd0a4f28419497f9722a3daafe3b4186f6b6457e060405160405180910390a35050565b8280546200024b9062000439565b90600052602060002090601f0160209004810192826200026f5760008555620002bb565b82601f106200028a57805160ff1916838001178555620002bb565b82800160010185558215620002bb579182015b82811115620002ba5782518255916020019190600101906200029d565b5b509050620002ca9190620002ce565b5090565b5b80821115620002e9576000816000905550600101620002cf565b5090565b600062000304620002fe84620003cd565b620003a4565b9050828152602081018484840111156200031d57600080fd5b6200032a84828562000403565b509392505050565b600082601f8301126200034457600080fd5b815162000356848260208601620002ed565b91505092915050565b6000602082840312156200037257600080fd5b600082015167ffffffffffffffff8111156200038d57600080fd5b6200039b8482850162000332565b91505092915050565b6000620003b0620003c3565b9050620003be82826200046f565b919050565b6000604051905090565b600067ffffffffffffffff821115620003eb57620003ea620004d4565b5b620003f68262000503565b9050602081019050919050565b60005b838110156200042357808201518184015260208101905062000406565b8381111562000433576000848401525b50505050565b600060028204905060018216806200045257607f821691505b60208210811415620004695762000468620004a5565b5b50919050565b6200047a8262000503565b810181811067ffffffffffffffff821117156200049c576200049b620004d4565b5b80604052505050565b7f4e487b7100000000000000000000000000000000000000000000000000000000600052602260045260246000fd5b7f4e487b7100000000000000000000000000000000000000000000000000000000600052604160045260246000fd5b6000601f19601f8301169050919050565b61334f80620005246000396000f3fe60806040526004361061014b5760003560e01c8063715018a6116100b6578063b228d9251161006f578063b228d92514610471578063b88d4fde1461049c578063c87b56dd146104c5578063d5abeb0114610502578063e985e9c51461052d578063f2fde38b1461056a5761014b565b8063715018a61461038557806385d178f41461039c5780638da5cb5b146103c757806395d89b41146103f2578063a22cb4651461041d578063a2309ff8146104465761014b565b806323b872dd1161010857806323b872dd146102775780633ccfd60b146102a057806342842e0e146102b75780636352211e146102e05780636817c76c1461031d57806370a08231146103485761014b565b806301ffc9a71461015057806306fdde031461018d578063081812fc146101b8578063095ea7b3146101f557806313413cd21461021e5780631b2ef1ca1461025b575b600080fd5b34801561015c57600080fd5b50610177600480360381019061017291906122d5565b610593565b604051610184919061286c565b60405180910390f35b34801561019957600080fd5b506101a2610675565b6040516101af9190612887565b60405180910390f35b3480156101c457600080fd5b506101df60048036038101906101da9190612327565b610707565b6040516101ec91906127ea565b60405180910390f35b34801561020157600080fd5b5061021c60048036038101906102179190612299565b61074d565b005b34801561022a57600080fd5b506102456004803603810190610240919061212e565b610865565b6040516102529190612ae9565b60405180910390f35b61027560048036038101906102709190612350565b61087d565b005b34801561028357600080fd5b5061029e60048036038101906102999190612193565b610a63565b005b3480156102ac57600080fd5b506102b5610ac3565b005b3480156102c357600080fd5b506102de60048036038101906102d99190612193565b610b9c565b005b3480156102ec57600080fd5b5061030760048036038101906103029190612327565b610bbc565b60405161031491906127ea565b60405180910390f35b34801561032957600080fd5b50610332610c43565b60405161033f9190612ae9565b60405180910390f35b34801561035457600080fd5b5061036f600480360381019061036a919061212e565b610c49565b60405161037c9190612ae9565b60405180910390f35b34801561039157600080fd5b5061039a610d01565b005b3480156103a857600080fd5b506103b1610d15565b6040516103be9190612805565b60405180910390f35b3480156103d357600080fd5b506103dc610d3b565b6040516103e991906127ea565b60405180910390f35b3480156103fe57600080fd5b50610407610d65565b6040516104149190612887565b60405180910390f35b34801561042957600080fd5b50610444600480360381019061043f919061225d565b610df7565b005b34801561045257600080fd5b5061045b610e0d565b6040516104689190612ae9565b60405180910390f35b34801561047d57600080fd5b50610486610e13565b6040516104939190612ae9565b60405180910390f35b3480156104a857600080fd5b506104c360048036038101906104be91906121e2565b610e19565b005b3480156104d157600080fd5b506104ec60048036038101906104e79190612327565b610e7b565b6040516104f99190612887565b60405180910390f35b34801561050e57600080fd5b50610517610ef7565b6040516105249190612ae9565b60405180910390f35b34801561053957600080fd5b50610554600480360381019061054f9190612157565b610efd565b604051610561919061286c565b60405180910390f35b34801561057657600080fd5b50610591600480360381019061058c919061212e565b610f91565b005b60007f80ac58cd000000000000000000000000000000000000000000000000000000007bffffffffffffffffffffffffffffffffffffffffffffffffffffffff1916827bffffffffffffffffffffffffffffffffffffffffffffffffffffffff1916148061065e57507f5b5e139f000000000000000000000000000000000000000000000000000000007bffffffffffffffffffffffffffffffffffffffffffffffffffffffff1916827bffffffffffffffffffffffffffffffffffffffffffffffffffffffff1916145b8061066e575061066d82611015565b5b9050919050565b60606000805461068490612d35565b80601f01602080910402602001604051908101604052809291908181526020018280546106b090612d35565b80156106fd5780601f106106d2576101008083540402835291602001916106fd565b820191906000526020600020905b8154815290600101906020018083116106e057829003601f168201915b5050505050905090565b60006107128261107f565b6004600083815260200190815260200160002060009054906101000a900473ffffffffffffffffffffffffffffffffffffffff169050919050565b600061075882610bbc565b90508073ffffffffffffffffffffffffffffffffffffffff168373ffffffffffffffffffffffffffffffffffffffff1614156107c9576040517f08c379a00000000000000000000000000000000000000000000000000000000081526004016107c090612a49565b60405180910390fd5b8073ffffffffffffffffffffffffffffffffffffffff166107e86110ca565b73ffffffffffffffffffffffffffffffffffffffff1614806108175750610816816108116110ca565b610efd565b5b610856576040517f08c379a000000000000000000000000000000000000000000000000000000000815260040161084d90612a69565b60405180910390fd5b61086083836110d2565b505050565b600d6020528060005260406000206000915090505481565b6009548260085461088e9190612bbd565b11156108cf576040517f08c379a00000000000000000000000000000000000000000000000000000000081526004016108c6906129a9565b60405180910390fd5b6108d7610d3b565b73ffffffffffffffffffffffffffffffffffffffff163373ffffffffffffffffffffffffffffffffffffffff16146109e857600754826109179190612c13565b3414610958576040517f08c379a000000000000000000000000000000000000000000000000000000000815260040161094f906128a9565b60405180910390fd5b600a5482600d60003373ffffffffffffffffffffffffffffffffffffffff1673ffffffffffffffffffffffffffffffffffffffff168152602001908152602001600020546109a69190612bbd565b11156109e7576040517f08c379a00000000000000000000000000000000000000000000000000000000081526004016109de90612a89565b60405180910390fd5b5b600d60003373ffffffffffffffffffffffffffffffffffffffff1673ffffffffffffffffffffffffffffffffffffffff1681526020019081526020016000206000815480929190610a3890612d98565b919050555060086000815480929190610a5090612d98565b9190505550610a5f338261118b565b5050565b610a74610a6e6110ca565b826111a9565b610ab3576040517f08c379a0000000000000000000000000000000000000000000000000000000008152600401610aaa906128c9565b60405180910390fd5b610abe83838361123e565b505050565b610acb611538565b6000600c60009054906101000a900473ffffffffffffffffffffffffffffffffffffffff1673ffffffffffffffffffffffffffffffffffffffff1647604051610b13906127d5565b60006040518083038185875af1925050503d8060008114610b50576040519150601f19603f3d011682016040523d82523d6000602084013e610b55565b606091505b5050905080610b99576040517f08c379a0000000000000000000000000000000000000000000000000000000008152600401610b9090612ac9565b60405180910390fd5b50565b610bb783838360405180602001604052806000815250610e19565b505050565b600080610bc8836115b6565b9050600073ffffffffffffffffffffffffffffffffffffffff168173ffffffffffffffffffffffffffffffffffffffff161415610c3a576040517f08c379a0000000000000000000000000000000000000000000000000000000008152600401610c3190612a29565b60405180910390fd5b80915050919050565b60075481565b60008073ffffffffffffffffffffffffffffffffffffffff168273ffffffffffffffffffffffffffffffffffffffff161415610cba576040517f08c379a0000000000000000000000000000000000000000000000000000000008152600401610cb1906129c9565b60405180910390fd5b600360008373ffffffffffffffffffffffffffffffffffffffff1673ffffffffffffffffffffffffffffffffffffffff168152602001908152602001600020549050919050565b610d09611538565b610d1360006115f3565b565b600c60009054906101000a900473ffffffffffffffffffffffffffffffffffffffff1681565b6000600660009054906101000a900473ffffffffffffffffffffffffffffffffffffffff16905090565b606060018054610d7490612d35565b80601f0160208091040260200160405190810160405280929190818152602001828054610da090612d35565b8015610ded5780601f10610dc257610100808354040283529160200191610ded565b820191906000526020600020905b815481529060010190602001808311610dd057829003601f168201915b5050505050905090565b610e09610e026110ca565b83836116b9565b5050565b60085481565b600a5481565b610e2a610e246110ca565b836111a9565b610e69576040517f08c379a0000000000000000000000000000000000000000000000000000000008152600401610e60906128c9565b60405180910390fd5b610e7584848484611826565b50505050565b6060610e8682611882565b610ec5576040517f08c379a0000000000000000000000000000000000000000000000000000000008152600401610ebc90612aa9565b60405180910390fd5b600b610ed0836118c3565b604051602001610ee19291906127a6565b6040516020818303038152906040529050919050565b60095481565b6000600560008473ffffffffffffffffffffffffffffffffffffffff1673ffffffffffffffffffffffffffffffffffffffff16815260200190815260200160002060008373ffffffffffffffffffffffffffffffffffffffff1673ffffffffffffffffffffffffffffffffffffffff16815260200190815260200160002060009054906101000a900460ff16905092915050565b610f99611538565b600073ffffffffffffffffffffffffffffffffffffffff168173ffffffffffffffffffffffffffffffffffffffff161415611009576040517f08c379a000000000000000000000000000000000000000000000000000000000815260040161100090612909565b60405180910390fd5b611012816115f3565b50565b60007f01ffc9a7000000000000000000000000000000000000000000000000000000007bffffffffffffffffffffffffffffffffffffffffffffffffffffffff1916827bffffffffffffffffffffffffffffffffffffffffffffffffffffffff1916149050919050565b61108881611882565b6110c7576040517f08c379a00000000000000000000000000000000000000000000000000000000081526004016110be90612a29565b60405180910390fd5b50565b600033905090565b816004600083815260200190815260200160002060006101000a81548173ffffffffffffffffffffffffffffffffffffffff021916908373ffffffffffffffffffffffffffffffffffffffff160217905550808273ffffffffffffffffffffffffffffffffffffffff1661114583610bbc565b73ffffffffffffffffffffffffffffffffffffffff167f8c5be1e5ebec7d5bd14f71427d1e84f3dd0314c0f7b2291e5b200ac8c7c3b92560405160405180910390a45050565b6111a58282604051806020016040528060008152506119e7565b5050565b6000806111b583610bbc565b90508073ffffffffffffffffffffffffffffffffffffffff168473ffffffffffffffffffffffffffffffffffffffff1614806111f757506111f68185610efd565b5b8061123557508373ffffffffffffffffffffffffffffffffffffffff1661121d84610707565b73ffffffffffffffffffffffffffffffffffffffff16145b91505092915050565b8273ffffffffffffffffffffffffffffffffffffffff1661125e82610bbc565b73ffffffffffffffffffffffffffffffffffffffff16146112b4576040517f08c379a00000000000000000000000000000000000000000000000000000000081526004016112ab90612929565b60405180910390fd5b600073ffffffffffffffffffffffffffffffffffffffff168273ffffffffffffffffffffffffffffffffffffffff161415611324576040517f08c379a000000000000000000000000000000000000000000000000000000000815260040161131b90612969565b60405180910390fd5b6113318383836001611a42565b8273ffffffffffffffffffffffffffffffffffffffff1661135182610bbc565b73ffffffffffffffffffffffffffffffffffffffff16146113a7576040517f08c379a000000000000000000000000000000000000000000000000000000000815260040161139e90612929565b60405180910390fd5b6004600082815260200190815260200160002060006101000a81549073ffffffffffffffffffffffffffffffffffffffff02191690556001600360008573ffffffffffffffffffffffffffffffffffffffff1673ffffffffffffffffffffffffffffffffffffffff168152602001908152602001600020600082825403925050819055506001600360008473ffffffffffffffffffffffffffffffffffffffff1673ffffffffffffffffffffffffffffffffffffffff16815260200190815260200160002060008282540192505081905550816002600083815260200190815260200160002060006101000a81548173ffffffffffffffffffffffffffffffffffffffff021916908373ffffffffffffffffffffffffffffffffffffffff160217905550808273ffffffffffffffffffffffffffffffffffffffff168473ffffffffffffffffffffffffffffffffffffffff167fddf252ad1be2c89b69c2b068fc378daa952ba7f163c4a11628f55a4df523b3ef60405160405180910390a46115338383836001611a48565b505050565b6115406110ca565b73ffffffffffffffffffffffffffffffffffffffff1661155e610d3b565b73ffffffffffffffffffffffffffffffffffffffff16146115b4576040517f08c379a00000000000000000000000000000000000000000000000000000000081526004016115ab90612a09565b60405180910390fd5b565b60006002600083815260200190815260200160002060009054906101000a900473ffffffffffffffffffffffffffffffffffffffff169050919050565b6000600660009054906101000a900473ffffffffffffffffffffffffffffffffffffffff16905081600660006101000a81548173ffffffffffffffffffffffffffffffffffffffff021916908373ffffffffffffffffffffffffffffffffffffffff1602179055508173ffffffffffffffffffffffffffffffffffffffff168173ffffffffffffffffffffffffffffffffffffffff167f8be0079c531659141344cd1fd0a4f28419497f9722a3daafe3b4186f6b6457e060405160405180910390a35050565b8173ffffffffffffffffffffffffffffffffffffffff168373ffffffffffffffffffffffffffffffffffffffff161415611728576040517f08c379a000000000000000000000000000000000000000000000000000000000815260040161171f90612989565b60405180910390fd5b80600560008573ffffffffffffffffffffffffffffffffffffffff1673ffffffffffffffffffffffffffffffffffffffff16815260200190815260200160002060008473ffffffffffffffffffffffffffffffffffffffff1673ffffffffffffffffffffffffffffffffffffffff16815260200190815260200160002060006101000a81548160ff0219169083151502179055508173ffffffffffffffffffffffffffffffffffffffff168373ffffffffffffffffffffffffffffffffffffffff167f17307eab39ab6107e8899845ad3d59bd9653f200f220920489ca2b5937696c3183604051611819919061286c565b60405180910390a3505050565b61183184848461123e565b61183d84848484611a4e565b61187c576040517f08c379a0000000000000000000000000000000000000000000000000000000008152600401611873906128e9565b60405180910390fd5b50505050565b60008073ffffffffffffffffffffffffffffffffffffffff166118a4836115b6565b73ffffffffffffffffffffffffffffffffffffffff1614159050919050565b6060600060016118d284611be5565b01905060008167ffffffffffffffff811115611917577f4e487b7100000000000000000000000000000000000000000000000000000000600052604160045260246000fd5b6040519080825280601f01601f1916602001820160405280156119495781602001600182028036833780820191505090505b509050600082602001820190505b6001156119dc578080600190039150507f3031323334353637383961626364656600000000000000000000000000000000600a86061a8153600a85816119c6577f4e487b7100000000000000000000000000000000000000000000000000000000600052601260045260246000fd5b04945060008514156119d7576119dc565b611957565b819350505050919050565b6119f18383611e1c565b6119fe6000848484611a4e565b611a3d576040517f08c379a0000000000000000000000000000000000000000000000000000000008152600401611a34906128e9565b60405180910390fd5b505050565b50505050565b50505050565b6000611a6f8473ffffffffffffffffffffffffffffffffffffffff1661203a565b15611bd8578373ffffffffffffffffffffffffffffffffffffffff1663150b7a02611a986110ca565b8786866040518563ffffffff1660e01b8152600401611aba9493929190612820565b602060405180830381600087803b158015611ad457600080fd5b505af1925050508015611b0557506040513d601f19601f82011682018060405250810190611b0291906122fe565b60015b611b88573d8060008114611b35576040519150601f19603f3d011682016040523d82523d6000602084013e611b3a565b606091505b50600081511415611b80576040517f08c379a0000000000000000000000000000000000000000000000000000000008152600401611b77906128e9565b60405180910390fd5b805181602001fd5b63150b7a0260e01b7bffffffffffffffffffffffffffffffffffffffffffffffffffffffff1916817bffffffffffffffffffffffffffffffffffffffffffffffffffffffff191614915050611bdd565b600190505b949350505050565b600080600090507a184f03e93ff9f4daa797ed6e38ed64bf6a1f0100000000000000008310611c69577a184f03e93ff9f4daa797ed6e38ed64bf6a1f0100000000000000008381611c5f577f4e487b7100000000000000000000000000000000000000000000000000000000600052601260045260246000fd5b0492506040810190505b6d04ee2d6d415b85acef81000000008310611ccc576d04ee2d6d415b85acef81000000008381611cc2577f4e487b7100000000000000000000000000000000000000000000000000000000600052601260045260246000fd5b0492506020810190505b662386f26fc100008310611d2157662386f26fc100008381611d17577f4e487b7100000000000000000000000000000000000000000000000000000000600052601260045260246000fd5b0492506010810190505b6305f5e1008310611d70576305f5e1008381611d66577f4e487b7100000000000000000000000000000000000000000000000000000000600052601260045260246000fd5b0492506008810190505b6127108310611dbb576127108381611db1577f4e487b7100000000000000000000000000000000000000000000000000000000600052601260045260246000fd5b0492506004810190505b60648310611e045760648381611dfa577f4e487b7100000000000000000000000000000000000000000000000000000000600052601260045260246000fd5b0492506002810190505b600a8310611e13576001810190505b80915050919050565b600073ffffffffffffffffffffffffffffffffffffffff168273ffffffffffffffffffffffffffffffffffffffff161415611e8c576040517f08c379a0000000000000000000000000000000000000000000000000000000008152600401611e83906129e9565b60405180910390fd5b611e9581611882565b15611ed5576040517f08c379a0000000000000000000000000000000000000000000000000000000008152600401611ecc90612949565b60405180910390fd5b611ee3600083836001611a42565b611eec81611882565b15611f2c576040517f08c379a0000000000000000000000000000000000000000000000000000000008152600401611f2390612949565b60405180910390fd5b6001600360008473ffffffffffffffffffffffffffffffffffffffff1673ffffffffffffffffffffffffffffffffffffffff16815260200190815260200160002060008282540192505081905550816002600083815260200190815260200160002060006101000a81548173ffffffffffffffffffffffffffffffffffffffff021916908373ffffffffffffffffffffffffffffffffffffffff160217905550808273ffffffffffffffffffffffffffffffffffffffff16600073ffffffffffffffffffffffffffffffffffffffff167fddf252ad1be2c89b69c2b068fc378daa952ba7f163c4a11628f55a4df523b3ef60405160405180910390a4612036600083836001611a48565b5050565b6000808273ffffffffffffffffffffffffffffffffffffffff163b119050919050565b600061207061206b84612b29565b612b04565b90508281526020810184848401111561208857600080fd5b612093848285612cf3565b509392505050565b6000813590506120aa816132bd565b92915050565b6000813590506120bf816132d4565b92915050565b6000813590506120d4816132eb565b92915050565b6000815190506120e9816132eb565b92915050565b600082601f83011261210057600080fd5b813561211084826020860161205d565b91505092915050565b60008135905061212881613302565b92915050565b60006020828403121561214057600080fd5b600061214e8482850161209b565b91505092915050565b6000806040838503121561216a57600080fd5b60006121788582860161209b565b92505060206121898582860161209b565b9150509250929050565b6000806000606084860312156121a857600080fd5b60006121b68682870161209b565b93505060206121c78682870161209b565b92505060406121d886828701612119565b9150509250925092565b600080600080608085870312156121f857600080fd5b60006122068782880161209b565b94505060206122178782880161209b565b935050604061222887828801612119565b925050606085013567ffffffffffffffff81111561224557600080fd5b612251878288016120ef565b91505092959194509250565b6000806040838503121561227057600080fd5b600061227e8582860161209b565b925050602061228f858286016120b0565b9150509250929050565b600080604083850312156122ac57600080fd5b60006122ba8582860161209b565b92505060206122cb85828601612119565b9150509250929050565b6000602082840312156122e757600080fd5b60006122f5848285016120c5565b91505092915050565b60006020828403121561231057600080fd5b600061231e848285016120da565b91505092915050565b60006020828403121561233957600080fd5b600061234784828501612119565b91505092915050565b6000806040838503121561236357600080fd5b600061237185828601612119565b925050602061238285828601612119565b9150509250929050565b61239581612c7f565b82525050565b6123a481612c6d565b82525050565b6123b381612c91565b82525050565b60006123c482612b6f565b6123ce8185612b85565b93506123de818560208601612d02565b6123e781612e6e565b840191505092915050565b60006123fd82612b7a565b6124078185612ba1565b9350612417818560208601612d02565b61242081612e6e565b840191505092915050565b600061243682612b7a565b6124408185612bb2565b9350612450818560208601612d02565b80840191505092915050565b6000815461246981612d35565b6124738186612bb2565b9450600182166000811461248e576001811461249f576124d2565b60ff198316865281860193506124d2565b6124a885612b5a565b60005b838110156124ca578154818901526001820191506020810190506124ab565b838801955050505b50505092915050565b60006124e8601083612ba1565b91506124f382612e7f565b602082019050919050565b600061250b602d83612ba1565b915061251682612ea8565b604082019050919050565b600061252e603283612ba1565b915061253982612ef7565b604082019050919050565b6000612551602683612ba1565b915061255c82612f46565b604082019050919050565b6000612574602583612ba1565b915061257f82612f95565b604082019050919050565b6000612597601c83612ba1565b91506125a282612fe4565b602082019050919050565b60006125ba602483612ba1565b91506125c58261300d565b604082019050919050565b60006125dd601983612ba1565b91506125e88261305c565b602082019050919050565b6000612600600883612ba1565b915061260b82613085565b602082019050919050565b6000612623602983612ba1565b915061262e826130ae565b604082019050919050565b6000612646602083612ba1565b9150612651826130fd565b602082019050919050565b6000612669600583612bb2565b915061267482613126565b600582019050919050565b600061268c602083612ba1565b91506126978261314f565b602082019050919050565b60006126af601883612ba1565b91506126ba82613178565b602082019050919050565b60006126d2602183612ba1565b91506126dd826131a1565b604082019050919050565b60006126f5600083612b96565b9150612700826131f0565b600082019050919050565b6000612718603d83612ba1565b9150612723826131f3565b604082019050919050565b600061273b601383612ba1565b915061274682613242565b602082019050919050565b600061275e601583612ba1565b91506127698261326b565b602082019050919050565b6000612781600f83612ba1565b915061278c82613294565b602082019050919050565b6127a081612ce9565b82525050565b60006127b2828561245c565b91506127be828461242b565b91506127c98261265c565b91508190509392505050565b60006127e0826126e8565b9150819050919050565b60006020820190506127ff600083018461239b565b92915050565b600060208201905061281a600083018461238c565b92915050565b6000608082019050612835600083018761239b565b612842602083018661239b565b61284f6040830185612797565b818103606083015261286181846123b9565b905095945050505050565b600060208201905061288160008301846123aa565b92915050565b600060208201905081810360008301526128a181846123f2565b905092915050565b600060208201905081810360008301526128c2816124db565b9050919050565b600060208201905081810360008301526128e2816124fe565b9050919050565b6000602082019050818103600083015261290281612521565b9050919050565b6000602082019050818103600083015261292281612544565b9050919050565b6000602082019050818103600083015261294281612567565b9050919050565b600060208201905081810360008301526129628161258a565b9050919050565b60006020820190508181036000830152612982816125ad565b9050919050565b600060208201905081810360008301526129a2816125d0565b9050919050565b600060208201905081810360008301526129c2816125f3565b9050919050565b600060208201905081810360008301526129e281612616565b9050919050565b60006020820190508181036000830152612a0281612639565b9050919050565b60006020820190508181036000830152612a228161267f565b9050919050565b60006020820190508181036000830152612a42816126a2565b9050919050565b60006020820190508181036000830152612a62816126c5565b9050919050565b60006020820190508181036000830152612a828161270b565b9050919050565b60006020820190508181036000830152612aa28161272e565b9050919050565b60006020820190508181036000830152612ac281612751565b9050919050565b60006020820190508181036000830152612ae281612774565b9050919050565b6000602082019050612afe6000830184612797565b92915050565b6000612b0e612b1f565b9050612b1a8282612d67565b919050565b6000604051905090565b600067ffffffffffffffff821115612b4457612b43612e3f565b5b612b4d82612e6e565b9050602081019050919050565b60008190508160005260206000209050919050565b600081519050919050565b600081519050919050565b600082825260208201905092915050565b600081905092915050565b600082825260208201905092915050565b600081905092915050565b6000612bc882612ce9565b9150612bd383612ce9565b9250827fffffffffffffffffffffffffffffffffffffffffffffffffffffffffffffffff03821115612c0857612c07612de1565b5b828201905092915050565b6000612c1e82612ce9565b9150612c2983612ce9565b9250817fffffffffffffffffffffffffffffffffffffffffffffffffffffffffffffffff0483118215151615612c6257612c61612de1565b5b828202905092915050565b6000612c7882612cc9565b9050919050565b6000612c8a82612cc9565b9050919050565b60008115159050919050565b60007fffffffff0000000000000000000000000000000000000000000000000000000082169050919050565b600073ffffffffffffffffffffffffffffffffffffffff82169050919050565b6000819050919050565b82818337600083830152505050565b60005b83811015612d20578082015181840152602081019050612d05565b83811115612d2f576000848401525b50505050565b60006002820490506001821680612d4d57607f821691505b60208210811415612d6157612d60612e10565b5b50919050565b612d7082612e6e565b810181811067ffffffffffffffff82111715612d8f57612d8e612e3f565b5b80604052505050565b6000612da382612ce9565b91507fffffffffffffffffffffffffffffffffffffffffffffffffffffffffffffffff821415612dd657612dd5612de1565b5b600182019050919050565b7f4e487b7100000000000000000000000000000000000000000000000000000000600052601160045260246000fd5b7f4e487b7100000000000000000000000000000000000000000000000000000000600052602260045260246000fd5b7f4e487b7100000000000000000000000000000000000000000000000000000000600052604160045260246000fd5b6000601f19601f8301169050919050565b7f77726f6e67206d696e742076616c756500000000000000000000000000000000600082015250565b7f4552433732313a2063616c6c6572206973206e6f7420746f6b656e206f776e6560008201527f72206f7220617070726f76656400000000000000000000000000000000000000602082015250565b7f4552433732313a207472616e7366657220746f206e6f6e20455243373231526560008201527f63656976657220696d706c656d656e7465720000000000000000000000000000602082015250565b7f4f776e61626c653a206e6577206f776e657220697320746865207a65726f206160008201527f6464726573730000000000000000000000000000000000000000000000000000602082015250565b7f4552433732313a207472616e736665722066726f6d20696e636f72726563742060008201527f6f776e6572000000000000000000000000000000000000000000000000000000602082015250565b7f4552433732313a20746f6b656e20616c7265616479206d696e74656400000000600082015250565b7f4552433732313a207472616e7366657220746f20746865207a65726f2061646460008201527f7265737300000000000000000000000000000000000000000000000000000000602082015250565b7f4552433732313a20617070726f766520746f2063616c6c657200000000000000600082015250565b7f736f6c64206f7574000000000000000000000000000000000000000000000000600082015250565b7f4552433732313a2061646472657373207a65726f206973206e6f74206120766160008201527f6c6964206f776e65720000000000000000000000000000000000000000000000602082015250565b7f4552433732313a206d696e7420746f20746865207a65726f2061646472657373600082015250565b7f2e6a736f6e000000000000000000000000000000000000000000000000000000600082015250565b7f4f776e61626c653a2063616c6c6572206973206e6f7420746865206f776e6572600082015250565b7f4552433732313a20696e76616c696420746f6b656e2049440000000000000000600082015250565b7f4552433732313a20617070726f76616c20746f2063757272656e74206f776e6560008201527f7200000000000000000000000000000000000000000000000000000000000000602082015250565b50565b7f4552433732313a20617070726f76652063616c6c6572206973206e6f7420746f60008201527f6b656e206f776e6572206f7220617070726f76656420666f7220616c6c000000602082015250565b7f6d696e74206c696d697420657863656564656400000000000000000000000000600082015250565b7f546f6b656e20646f6573206e6f74206578697374210000000000000000000000600082015250565b7f7769746864726177206661696c65640000000000000000000000000000000000600082015250565b6132c681612c6d565b81146132d157600080fd5b50565b6132dd81612c91565b81146132e857600080fd5b50565b6132f481612c9d565b81146132ff57600080fd5b50565b61330b81612ce9565b811461331657600080fd5b5056fea26469706673582212205d788bb0f75b07a91f1fbb59ef07bc76d29bf40d60e704805076a49d2f435e9764736f6c63430008040033",
  "immutableReferences": {},
  "source": "//SPDX-License-Identifier: Unlicense\r\npragma solidity ^0.8.4;\r\n\r\nimport \"@openzeppelin/contracts/token/ERC721/ERC721.sol\";\r\nimport \"@openzeppelin/contracts/access/Ownable.sol\";\r\n\r\ncontract NFT is ERC721, Ownable {\r\n\r\n    uint public mintPrice;\r\n    uint public totalMinted;\r\n    uint public maxSupply;\r\n    uint public maxMintPerWallet;\r\n    string internal baseTokenUri;\r\n    address payable public withdrawWallet;\r\n    mapping( address => uint) public mintPerWallet;\r\n\r\n    constructor(string memory uri_) payable ERC721(\"Cyberbots\", \"CBT\"){\r\n        mintPrice = 0.00001 ether;\r\n        totalMinted = 0;\r\n        maxSupply = 10;\r\n        maxMintPerWallet = 2;\r\n        baseTokenUri = uri_;\r\n        withdrawWallet = payable(msg.sender);\r\n    }\r\n    \r\n    function tokenURI(uint tokenId_) public view override returns(string memory){\r\n        require(_exists(tokenId_), \"Token does not exist!\");\r\n        return string(abi.encodePacked(baseTokenUri, Strings.toString(tokenId_), \".json\"));\r\n    }\r\n\r\n    function withdraw() external onlyOwner {\r\n        (bool success,) = withdrawWallet.call{ value: address(this).balance }('');\r\n        require(success, \"withdraw failed\");\r\n    }\r\n\r\n    function mint( uint quantity_, uint tokenId) public payable {\r\n        require(totalMinted + quantity_ <= maxSupply, \"sold out\");\r\n        \r\n        if( msg.sender != owner() ){\r\n            require(msg.value == quantity_ * mintPrice, \"wrong mint value\");\r\n            require(mintPerWallet[msg.sender] + quantity_ <= maxMintPerWallet, \"mint limit exceeded\");\r\n        }\r\n        \r\n        mintPerWallet[msg.sender]++;\r\n        totalMinted++;\r\n        _safeMint(msg.sender, tokenId);\r\n    \r\n    }\r\n\r\n}",
  "sourcePath": "C:\\Users\\adity\\trfl\\src\\contracts\\NFT.sol",
  "compiler": {
    "name": "solc",
    "version": "0.8.4+commit.c7e474f2.Emscripten.clang"
  },
  "schemaVersion": "3.4.9",
  "updatedAt": "2023-06-03T12:44:42.696Z",
  "devdoc": {
    "kind": "dev",
    "methods": {
      "approve(address,uint256)": {
        "details": "See {IERC721-approve}."
      },
      "balanceOf(address)": {
        "details": "See {IERC721-balanceOf}."
      },
      "getApproved(uint256)": {
        "details": "See {IERC721-getApproved}."
      },
      "isApprovedForAll(address,address)": {
        "details": "See {IERC721-isApprovedForAll}."
      },
      "name()": {
        "details": "See {IERC721Metadata-name}."
      },
      "owner()": {
        "details": "Returns the address of the current owner."
      },
      "ownerOf(uint256)": {
        "details": "See {IERC721-ownerOf}."
      },
      "renounceOwnership()": {
        "details": "Leaves the contract without owner. It will not be possible to call `onlyOwner` functions. Can only be called by the current owner. NOTE: Renouncing ownership will leave the contract without an owner, thereby disabling any functionality that is only available to the owner."
      },
      "safeTransferFrom(address,address,uint256)": {
        "details": "See {IERC721-safeTransferFrom}."
      },
      "safeTransferFrom(address,address,uint256,bytes)": {
        "details": "See {IERC721-safeTransferFrom}."
      },
      "setApprovalForAll(address,bool)": {
        "details": "See {IERC721-setApprovalForAll}."
      },
      "supportsInterface(bytes4)": {
        "details": "See {IERC165-supportsInterface}."
      },
      "symbol()": {
        "details": "See {IERC721Metadata-symbol}."
      },
      "transferFrom(address,address,uint256)": {
        "details": "See {IERC721-transferFrom}."
      },
      "transferOwnership(address)": {
        "details": "Transfers ownership of the contract to a new account (`newOwner`). Can only be called by the current owner."
      }
    },
    "version": 1
  },
  "userdoc": {
    "kind": "user",
    "methods": {},
    "version": 1
  }
}