{
  "contractName": "OnSale",
  "abi": [
    {
      "constant": true,
      "inputs": [],
      "name": "itemCount",
      "outputs": [
        {
          "name": "",
          "type": "uint256"
        }
      ],
      "payable": false,
      "stateMutability": "view",
      "type": "function",
      "signature": "0x6bfb0d01"
    },
    {
      "constant": true,
      "inputs": [
        {
          "name": "",
          "type": "uint256"
        }
      ],
      "name": "items",
      "outputs": [
        {
          "name": "id",
          "type": "uint256"
        },
        {
          "name": "product",
          "type": "string"
        },
        {
          "name": "price",
          "type": "uint256"
        },
        {
          "name": "quantity",
          "type": "uint256"
        },
        {
          "name": "imageHash",
          "type": "string"
        },
        {
          "name": "seller",
          "type": "address"
        }
      ],
      "payable": false,
      "stateMutability": "view",
      "type": "function",
      "signature": "0xbfb231d2"
    },
    {
      "constant": true,
      "inputs": [],
      "name": "oredrCount",
      "outputs": [
        {
          "name": "",
          "type": "uint256"
        }
      ],
      "payable": false,
      "stateMutability": "view",
      "type": "function",
      "signature": "0xef9af84a"
    },
    {
      "anonymous": false,
      "inputs": [
        {
          "indexed": false,
          "name": "id",
          "type": "uint256"
        },
        {
          "indexed": false,
          "name": "product",
          "type": "string"
        },
        {
          "indexed": false,
          "name": "price",
          "type": "uint256"
        },
        {
          "indexed": false,
          "name": "quantity",
          "type": "uint256"
        },
        {
          "indexed": false,
          "name": "seller",
          "type": "address"
        }
      ],
      "name": "itemAdded",
      "type": "event",
      "signature": "0xfc6ab05debfcac4824e379e6562534b8f17bdaae10f1bc7a6cf3881f7f41d987"
    },
    {
      "anonymous": false,
      "inputs": [
        {
          "indexed": false,
          "name": "id",
          "type": "uint256"
        },
        {
          "indexed": false,
          "name": "buyer",
          "type": "address"
        },
        {
          "indexed": false,
          "name": "amount",
          "type": "uint256"
        }
      ],
      "name": "productBought",
      "type": "event",
      "signature": "0xb7cecdc145bd2c896184831bf3acb5825b0713d6ed9d8a70c617259d558ab2d4"
    },
    {
      "constant": false,
      "inputs": [
        {
          "name": "_product",
          "type": "string"
        },
        {
          "name": "_price",
          "type": "uint256"
        },
        {
          "name": "_quantity",
          "type": "uint256"
        },
        {
          "name": "_imageHash",
          "type": "string"
        }
      ],
      "name": "addItem",
      "outputs": [],
      "payable": false,
      "stateMutability": "nonpayable",
      "type": "function",
      "signature": "0x82ce10b4"
    },
    {
      "constant": false,
      "inputs": [
        {
          "name": "_id",
          "type": "uint256"
        }
      ],
      "name": "buy",
      "outputs": [],
      "payable": true,
      "stateMutability": "payable",
      "type": "function",
      "signature": "0xd96a094a"
    },
    {
      "constant": true,
      "inputs": [],
      "name": "getProducts",
      "outputs": [
        {
          "components": [
            {
              "name": "product",
              "type": "string"
            },
            {
              "name": "imageHash",
              "type": "string"
            },
            {
              "name": "price",
              "type": "uint256"
            },
            {
              "name": "quantity",
              "type": "uint256"
            }
          ],
          "name": "",
          "type": "tuple[]"
        }
      ],
      "payable": false,
      "stateMutability": "view",
      "type": "function",
      "signature": "0xc29b2f20"
    },
    {
      "constant": true,
      "inputs": [],
      "name": "getOrders",
      "outputs": [
        {
          "components": [
            {
              "name": "id",
              "type": "uint256"
            },
            {
              "name": "product",
              "type": "string"
            },
            {
              "name": "price",
              "type": "uint256"
            },
            {
              "name": "quantity",
              "type": "uint256"
            },
            {
              "name": "imageHash",
              "type": "string"
            },
            {
              "name": "seller",
              "type": "address"
            }
          ],
          "name": "",
          "type": "tuple[]"
        }
      ],
      "payable": false,
      "stateMutability": "view",
      "type": "function",
      "signature": "0x2e2dc43e"
    },
    {
      "constant": false,
      "inputs": [
        {
          "name": "_id",
          "type": "uint256"
        }
      ],
      "name": "paymentApproved",
      "outputs": [],
      "payable": false,
      "stateMutability": "nonpayable",
      "type": "function",
      "signature": "0x9252fa8f"
    }
  ],
  "bytecode": "0x60806040526000805534801561001457600080fd5b50611b43806100246000396000f3fe60806040526004361061008e576000357c0100000000000000000000000000000000000000000000000000000000900463ffffffff1680632e2dc43e146100935780636bfb0d01146100be57806382ce10b4146100e95780639252fa8f14610112578063bfb231d21461013b578063c29b2f201461017d578063d96a094a146101a8578063ef9af84a146101c4575b600080fd5b34801561009f57600080fd5b506100a86101ef565b6040516100b591906117f0565b60405180910390f35b3480156100ca57600080fd5b506100d3610444565b6040516100e09190611854565b60405180910390f35b3480156100f557600080fd5b50610110600480360361010b919081019061147f565b61044a565b005b34801561011e57600080fd5b5061013960048036036101349190810190611512565b61067b565b005b34801561014757600080fd5b50610162600480360361015d9190810190611512565b610821565b60405161017496959493929190611900565b60405180910390f35b34801561018957600080fd5b506101926109ad565b60405161019f9190611812565b60405180910390f35b6101c260048036036101bd9190810190611512565b610ba2565b005b3480156101d057600080fd5b506101d96112a5565b6040516101e69190611854565b60405180910390f35b6060600560003373ffffffffffffffffffffffffffffffffffffffff1673ffffffffffffffffffffffffffffffffffffffff168152602001908152602001600020805480602002602001604051908101604052809291908181526020016000905b8282101561043b578382906000526020600020906006020160c0604051908101604052908160008201548152602001600182018054600181600116156101000203166002900480601f0160208091040260200160405190810160405280929190818152602001828054600181600116156101000203166002900480156103175780601f106102ec57610100808354040283529160200191610317565b820191906000526020600020905b8154815290600101906020018083116102fa57829003601f168201915b505050505081526020016002820154815260200160038201548152602001600482018054600181600116156101000203166002900480601f0160208091040260200160405190810160405280929190818152602001828054600181600116156101000203166002900480156103cd5780601f106103a2576101008083540402835291602001916103cd565b820191906000526020600020905b8154815290600101906020018083116103b057829003601f168201915b505050505081526020016005820160009054906101000a900473ffffffffffffffffffffffffffffffffffffffff1673ffffffffffffffffffffffffffffffffffffffff1673ffffffffffffffffffffffffffffffffffffffff168152505081526020019060010190610250565b50505050905090565b60005481565b600080815480929190600101919050555060c06040519081016040528060005481526020018581526020018481526020018381526020018281526020013373ffffffffffffffffffffffffffffffffffffffff1681525060026000805481526020019081526020016000206000820151816000015560208201518160010190805190602001906104db9291906112ab565b506040820151816002015560608201518160030155608082015181600401908051906020019061050c9291906112ab565b5060a08201518160050160006101000a81548173ffffffffffffffffffffffffffffffffffffffff021916908373ffffffffffffffffffffffffffffffffffffffff160217905550905050600460003373ffffffffffffffffffffffffffffffffffffffff1673ffffffffffffffffffffffffffffffffffffffff168152602001908152602001600020608060405190810160405280868152602001838152602001858152602001848152509080600181540180825580915050906001820390600052602060002090600402016000909192909190915060008201518160000190805190602001906105ff9291906112ab565b50602082015181600101908051906020019061061c9291906112ab565b5060408201518160020155606082015181600301555050507ffc6ab05debfcac4824e379e6562534b8f17bdaae10f1bc7a6cf3881f7f41d9876000548585853360405161066d9594939291906118a6565b60405180910390a150505050565b61068361132b565b600360003373ffffffffffffffffffffffffffffffffffffffff1673ffffffffffffffffffffffffffffffffffffffff1681526020019081526020016000206000838152602001908152602001600020604080519081016040529081600082015481526020016001820160009054906101000a900473ffffffffffffffffffffffffffffffffffffffff1673ffffffffffffffffffffffffffffffffffffffff1673ffffffffffffffffffffffffffffffffffffffff168152505090506000816000015190506000826020015190508073ffffffffffffffffffffffffffffffffffffffff166108fc839081150290604051600060405180830381858888f19350505050158015610798573d6000803e3d6000fd5b50600360003373ffffffffffffffffffffffffffffffffffffffff1673ffffffffffffffffffffffffffffffffffffffff16815260200190815260200160002060008581526020019081526020016000206000808201600090556001820160006101000a81549073ffffffffffffffffffffffffffffffffffffffff0219169055505050505050565b6002602052806000526040600020600091509050806000015490806001018054600181600116156101000203166002900480601f0160208091040260200160405190810160405280929190818152602001828054600181600116156101000203166002900480156108d35780601f106108a8576101008083540402835291602001916108d3565b820191906000526020600020905b8154815290600101906020018083116108b657829003601f168201915b505050505090806002015490806003015490806004018054600181600116156101000203166002900480601f01602080910402602001604051908101604052809291908181526020018280546001816001161561010002031660029004801561097d5780601f106109525761010080835404028352916020019161097d565b820191906000526020600020905b81548152906001019060200180831161096057829003601f168201915b5050505050908060050160009054906101000a900473ffffffffffffffffffffffffffffffffffffffff16905086565b6060600460003373ffffffffffffffffffffffffffffffffffffffff1673ffffffffffffffffffffffffffffffffffffffff168152602001908152602001600020805480602002602001604051908101604052809291908181526020016000905b82821015610b99578382906000526020600020906004020160806040519081016040529081600082018054600181600116156101000203166002900480601f016020809104026020016040519081016040528092919081815260200182805460018160011615610100020316600290048015610acb5780601f10610aa057610100808354040283529160200191610acb565b820191906000526020600020905b815481529060010190602001808311610aae57829003601f168201915b50505050508152602001600182018054600181600116156101000203166002900480601f016020809104026020016040519081016040528092919081815260200182805460018160011615610100020316600290048015610b6d5780601f10610b4257610100808354040283529160200191610b6d565b820191906000526020600020905b815481529060010190602001808311610b5057829003601f168201915b505050505081526020016002820154815260200160038201548152505081526020019060010190610a0e565b50505050905090565b610baa61135b565b6002600083815260200190815260200160002060c0604051908101604052908160008201548152602001600182018054600181600116156101000203166002900480601f016020809104026020016040519081016040528092919081815260200182805460018160011615610100020316600290048015610c6c5780601f10610c4157610100808354040283529160200191610c6c565b820191906000526020600020905b815481529060010190602001808311610c4f57829003601f168201915b505050505081526020016002820154815260200160038201548152602001600482018054600181600116156101000203166002900480601f016020809104026020016040519081016040528092919081815260200182805460018160011615610100020316600290048015610d225780601f10610cf757610100808354040283529160200191610d22565b820191906000526020600020905b815481529060010190602001808311610d0557829003601f168201915b505050505081526020016005820160009054906101000a900473ffffffffffffffffffffffffffffffffffffffff1673ffffffffffffffffffffffffffffffffffffffff1673ffffffffffffffffffffffffffffffffffffffff16815250509050670de0b6b3a76400008160400151023410151515610dd6576040517f08c379a0000000000000000000000000000000000000000000000000000000008152600401610dcd90611834565b60405180910390fd5b60408051908101604052803481526020018260a0015173ffffffffffffffffffffffffffffffffffffffff16815250600360003373ffffffffffffffffffffffffffffffffffffffff1673ffffffffffffffffffffffffffffffffffffffff16815260200190815260200160002060008481526020019081526020016000206000820151816000015560208201518160010160006101000a81548173ffffffffffffffffffffffffffffffffffffffff021916908373ffffffffffffffffffffffffffffffffffffffff1602179055509050507fb7cecdc145bd2c896184831bf3acb5825b0713d6ed9d8a70c617259d558ab2d481600001513334604051610ee09392919061186f565b60405180910390a160016002600084815260200190815260200160002060030160008282540392505081905550600060026000848152602001908152602001600020600301541415610fa25760026000838152602001908152602001600020600080820160009055600182016000610f5891906113a8565b60028201600090556003820160009055600482016000610f7891906113a8565b6005820160006101000a81549073ffffffffffffffffffffffffffffffffffffffff021916905550505b6000809050600080600090505b600560003373ffffffffffffffffffffffffffffffffffffffff1673ffffffffffffffffffffffffffffffffffffffff168152602001908152602001600020805490508110156110815784600560003373ffffffffffffffffffffffffffffffffffffffff1673ffffffffffffffffffffffffffffffffffffffff1681526020019081526020016000208281548110151561104657fe5b90600052602060002090600602016000015414151561106c578280600101935050611074565b809150611081565b8080600101915050610faf565b50600560003373ffffffffffffffffffffffffffffffffffffffff1673ffffffffffffffffffffffffffffffffffffffff1681526020019081526020016000208054905082141561123257600560003373ffffffffffffffffffffffffffffffffffffffff1673ffffffffffffffffffffffffffffffffffffffff16815260200190815260200160002060c060405190810160405280868152602001856020015181526020018560400151815260200160018152602001856080015181526020018560a0015173ffffffffffffffffffffffffffffffffffffffff16815250908060018154018082558091505090600182039060005260206000209060060201600090919290919091506000820151816000015560208201518160010190805190602001906111b19291906112ab565b50604082015181600201556060820151816003015560808201518160040190805190602001906111e29291906112ab565b5060a08201518160050160006101000a81548173ffffffffffffffffffffffffffffffffffffffff021916908373ffffffffffffffffffffffffffffffffffffffff16021790555050505061129f565b6001600560003373ffffffffffffffffffffffffffffffffffffffff1673ffffffffffffffffffffffffffffffffffffffff1681526020019081526020016000208281548110151561128057fe5b9060005260206000209060060201600301600082825401925050819055505b50505050565b60015481565b828054600181600116156101000203166002900490600052602060002090601f016020900481019282601f106112ec57805160ff191683800117855561131a565b8280016001018555821561131a579182015b828111156113195782518255916020019190600101906112fe565b5b50905061132791906113f0565b5090565b604080519081016040528060008152602001600073ffffffffffffffffffffffffffffffffffffffff1681525090565b60c0604051908101604052806000815260200160608152602001600081526020016000815260200160608152602001600073ffffffffffffffffffffffffffffffffffffffff1681525090565b50805460018160011615610100020316600290046000825580601f106113ce57506113ed565b601f0160209004906000526020600020908101906113ec91906113f0565b5b50565b61141291905b8082111561140e5760008160009055506001016113f6565b5090565b90565b600082601f830112151561142857600080fd5b813561143b6114368261199c565b61196f565b9150808252602083016020830185838301111561145757600080fd5b611462838284611ab6565b50505092915050565b60006114778235611a76565b905092915050565b6000806000806080858703121561149557600080fd5b600085013567ffffffffffffffff8111156114af57600080fd5b6114bb87828801611415565b94505060206114cc8782880161146b565b93505060406114dd8782880161146b565b925050606085013567ffffffffffffffff8111156114fa57600080fd5b61150687828801611415565b91505092959194509250565b60006020828403121561152457600080fd5b60006115328482850161146b565b91505092915050565b61154481611a80565b82525050565b61155381611a3a565b82525050565b61156281611a28565b82525050565b6000611573826119e2565b8084526020840193508360208202850161158c856119c8565b60005b848110156115c55783830388526115a78383516116e7565b92506115b282611a0e565b915060208801975060018101905061158f565b508196508694505050505092915050565b60006115e1826119ed565b808452602084019350836020820285016115fa856119d5565b60005b84811015611633578383038852611615838351611777565b925061162082611a1b565b91506020880197506001810190506115fd565b508196508694505050505092915050565b600061164f82611a03565b808452611663816020860160208601611ac5565b61166c81611af8565b602085010191505092915050565b6000611685826119f8565b808452611699816020860160208601611ac5565b6116a281611af8565b602085010191505092915050565b6000601482527f696e73756666696369656e742062616c616e63650000000000000000000000006020830152604082019050919050565b600060c0830160008301516116ff60008601826117e1565b5060208301518482036020860152611717828261167a565b915050604083015161172c60408601826117e1565b50606083015161173f60608601826117e1565b5060808301518482036080860152611757828261167a565b91505060a083015161176c60a0860182611559565b508091505092915050565b60006080830160008301518482036000860152611794828261167a565b915050602083015184820360208601526117ae828261167a565b91505060408301516117c360408601826117e1565b5060608301516117d660608601826117e1565b508091505092915050565b6117ea81611a6c565b82525050565b6000602082019050818103600083015261180a8184611568565b905092915050565b6000602082019050818103600083015261182c81846115d6565b905092915050565b6000602082019050818103600083015261184d816116b0565b9050919050565b600060208201905061186960008301846117e1565b92915050565b600060608201905061188460008301866117e1565b611891602083018561153b565b61189e60408301846117e1565b949350505050565b600060a0820190506118bb60008301886117e1565b81810360208301526118cd8187611644565b90506118dc60408301866117e1565b6118e960608301856117e1565b6118f6608083018461153b565b9695505050505050565b600060c08201905061191560008301896117e1565b8181036020830152611927818861167a565b905061193660408301876117e1565b61194360608301866117e1565b8181036080830152611955818561167a565b905061196460a083018461154a565b979650505050505050565b6000604051905081810181811067ffffffffffffffff8211171561199257600080fd5b8060405250919050565b600067ffffffffffffffff8211156119b357600080fd5b601f19601f8301169050602081019050919050565b6000602082019050919050565b6000602082019050919050565b600081519050919050565b600081519050919050565b600081519050919050565b600081519050919050565b6000602082019050919050565b6000602082019050919050565b6000611a3382611a4c565b9050919050565b6000611a4582611a4c565b9050919050565b600073ffffffffffffffffffffffffffffffffffffffff82169050919050565b6000819050919050565b6000819050919050565b6000611a8b82611a92565b9050919050565b6000611a9d82611aa4565b9050919050565b6000611aaf82611a4c565b9050919050565b82818337600083830152505050565b60005b83811015611ae3578082015181840152602081019050611ac8565b83811115611af2576000848401525b50505050565b6000601f19601f830116905091905056fea265627a7a72305820dda0d15686b4ee651aa01813d789f99718f7d7fb6b61f392777b7ebca25282846c6578706572696d656e74616cf50037",
  "source": "pragma solidity >=0.4.22 <0.9.0;\r\npragma experimental ABIEncoderV2;\r\n\r\ncontract OnSale {\r\n\r\n\r\n    uint public itemCount = 0;\r\n    uint public oredrCount;\r\n\r\n    mapping(uint => userItem) public items;\r\n    mapping(address => mapping(uint => sellerData) ) pendingAmount;\r\n    mapping(address => productInfo[]) products;\r\n    mapping(address => orderInfo[])  orders;\r\n\r\n    struct userItem {\r\n        uint id;\r\n        string product;\r\n        uint price;\r\n        uint quantity;\r\n        string imageHash;\r\n        address payable seller;\r\n    }\r\n\r\n\r\n    struct sellerData {\r\n        uint amount;\r\n        address payable seller;\r\n    }\r\n\r\n    struct productInfo {\r\n        string product;\r\n        string imageHash;\r\n        uint price;\r\n        uint quantity;\r\n    }\r\n\r\n    struct orderInfo{\r\n        uint id;\r\n        string product;\r\n        uint price;\r\n        uint quantity;\r\n        string imageHash;\r\n        address seller;\r\n    }\r\n\r\n    event itemAdded (\r\n        uint id,\r\n        string product,\r\n        uint price,\r\n        uint quantity,\r\n        address  seller\r\n    );\r\n\r\n    event productBought (\r\n        uint id,\r\n        address buyer,\r\n        uint amount\r\n    );\r\n\r\n    function addItem(string memory _product, uint _price, uint _quantity,string memory _imageHash) public {\r\n        itemCount++;\r\n        items[itemCount] = userItem(itemCount,_product,_price,_quantity,_imageHash,msg.sender);\r\n        products[msg.sender].push(productInfo(_product,_imageHash,_price,_quantity));\r\n        emit itemAdded(itemCount, _product, _price, _quantity, msg.sender);\r\n    }\r\n\r\n    function buy(uint _id) public payable {\r\n        userItem memory itemSelected = items[_id];\r\n        \r\n        require(msg.value >= itemSelected.price *(1 ether), \"insufficient balance\");\r\n        \r\n        pendingAmount[msg.sender][_id] = sellerData(msg.value,itemSelected.seller);\r\n\r\n        emit productBought(itemSelected.id,msg.sender,msg.value);\r\n        \r\n        items[_id].quantity-=1;\r\n        if( items[_id].quantity == 0){\r\n            delete items[_id];\r\n        }\r\n\r\n        uint count = 0;\r\n        uint index;\r\n        for(uint i=0;i<orders[msg.sender].length;i++){\r\n            if(orders[msg.sender][i].id != _id){\r\n                count++;\r\n            }else{\r\n                index=i;\r\n                break;\r\n            }\r\n              \r\n        }\r\n\r\n        if(count== orders[msg.sender].length){\r\n            orders[msg.sender].push(\r\n              orderInfo(_id,itemSelected.product,itemSelected.price,1,itemSelected.imageHash,itemSelected.seller)\r\n              );\r\n        }else{\r\n            orders[msg.sender][index].quantity+=1;\r\n        }\r\n        \r\n    }\r\n\r\n    function getProducts() public view returns(productInfo [] memory) {\r\n        return products[msg.sender];\r\n    }\r\n\r\n    function getOrders() public view returns(orderInfo [] memory){\r\n        return orders[msg.sender];\r\n    }\r\n\r\n    function paymentApproved(uint _id) public {\r\n        sellerData memory sellerdata = pendingAmount[msg.sender][_id];\r\n        uint amount = sellerdata.amount;\r\n        address payable seller = sellerdata.seller;\r\n        address(seller).transfer(amount);\r\n        delete pendingAmount[msg.sender][_id];\r\n    }\r\n\r\n\r\n}\r\n\r\n",
  "sourcePath": "C:/Users/adity/trfl/src/contracts/OnSaleContract.sol",
  "compiler": {
    "name": "solc",
    "version": "0.5.0+commit.1d4f565a.Emscripten.clang"
  },
  "schemaVersion": "3.0.2",
  "updatedAt": "2022-04-22T14:30:42.452Z",
  "devdoc": {
    "methods": {}
  },
  "userdoc": {
    "methods": {}
  }
}