{
  "contractName": "OnSale",
  "abi": [
    {
      "inputs": [],
      "stateMutability": "nonpayable",
      "type": "constructor"
    },
    {
      "anonymous": false,
      "inputs": [
        {
          "indexed": false,
          "internalType": "uint256",
          "name": "id",
          "type": "uint256"
        },
        {
          "indexed": false,
          "internalType": "string",
          "name": "product",
          "type": "string"
        },
        {
          "indexed": false,
          "internalType": "uint256",
          "name": "price",
          "type": "uint256"
        },
        {
          "indexed": false,
          "internalType": "uint256",
          "name": "quantity",
          "type": "uint256"
        },
        {
          "indexed": false,
          "internalType": "address",
          "name": "owner",
          "type": "address"
        }
      ],
      "name": "itemAdded",
      "type": "event"
    },
    {
      "anonymous": false,
      "inputs": [
        {
          "indexed": false,
          "internalType": "uint256",
          "name": "id",
          "type": "uint256"
        },
        {
          "indexed": false,
          "internalType": "address",
          "name": "buyer",
          "type": "address"
        },
        {
          "indexed": false,
          "internalType": "uint256",
          "name": "amount",
          "type": "uint256"
        }
      ],
      "name": "productBought",
      "type": "event"
    },
    {
      "inputs": [],
      "name": "itemCount",
      "outputs": [
        {
          "internalType": "uint256",
          "name": "",
          "type": "uint256"
        }
      ],
      "stateMutability": "view",
      "type": "function"
    },
    {
      "inputs": [
        {
          "internalType": "uint256",
          "name": "",
          "type": "uint256"
        }
      ],
      "name": "items",
      "outputs": [
        {
          "internalType": "uint256",
          "name": "id",
          "type": "uint256"
        },
        {
          "internalType": "string",
          "name": "category",
          "type": "string"
        },
        {
          "internalType": "string",
          "name": "product",
          "type": "string"
        },
        {
          "internalType": "uint256",
          "name": "price",
          "type": "uint256"
        },
        {
          "internalType": "uint256",
          "name": "quantity",
          "type": "uint256"
        },
        {
          "internalType": "string",
          "name": "imageHash",
          "type": "string"
        }
      ],
      "stateMutability": "view",
      "type": "function"
    },
    {
      "inputs": [],
      "name": "oredrCount",
      "outputs": [
        {
          "internalType": "uint256",
          "name": "",
          "type": "uint256"
        }
      ],
      "stateMutability": "view",
      "type": "function"
    },
    {
      "inputs": [
        {
          "internalType": "address",
          "name": "",
          "type": "address"
        },
        {
          "internalType": "uint256",
          "name": "",
          "type": "uint256"
        }
      ],
      "name": "pendingAmount",
      "outputs": [
        {
          "internalType": "uint256",
          "name": "",
          "type": "uint256"
        }
      ],
      "stateMutability": "view",
      "type": "function"
    },
    {
      "inputs": [
        {
          "internalType": "string",
          "name": "_category",
          "type": "string"
        },
        {
          "internalType": "string",
          "name": "_product",
          "type": "string"
        },
        {
          "internalType": "uint256",
          "name": "_price",
          "type": "uint256"
        },
        {
          "internalType": "uint256",
          "name": "_quantity",
          "type": "uint256"
        },
        {
          "internalType": "string",
          "name": "_imageHash",
          "type": "string"
        }
      ],
      "name": "addItem",
      "outputs": [],
      "stateMutability": "nonpayable",
      "type": "function"
    },
    {
      "inputs": [
        {
          "internalType": "uint256",
          "name": "_id",
          "type": "uint256"
        },
        {
          "internalType": "uint256",
          "name": "_quantity",
          "type": "uint256"
        }
      ],
      "name": "buy",
      "outputs": [],
      "stateMutability": "payable",
      "type": "function"
    },
    {
      "inputs": [],
      "name": "getOrders",
      "outputs": [
        {
          "components": [
            {
              "internalType": "uint256",
              "name": "id",
              "type": "uint256"
            },
            {
              "internalType": "string",
              "name": "product",
              "type": "string"
            },
            {
              "internalType": "uint256",
              "name": "price",
              "type": "uint256"
            },
            {
              "internalType": "uint256",
              "name": "quantity",
              "type": "uint256"
            },
            {
              "internalType": "string",
              "name": "imageHash",
              "type": "string"
            }
          ],
          "internalType": "struct OnSale.orderInfo[]",
          "name": "",
          "type": "tuple[]"
        }
      ],
      "stateMutability": "view",
      "type": "function"
    },
    {
      "inputs": [
        {
          "internalType": "uint256",
          "name": "_id",
          "type": "uint256"
        }
      ],
      "name": "paymentApproved",
      "outputs": [],
      "stateMutability": "nonpayable",
      "type": "function"
    }
  ],
  "bytecode": "0x60806040526000805534801561001457600080fd5b5033600260006101000a81548173ffffffffffffffffffffffffffffffffffffffff021916908373ffffffffffffffffffffffffffffffffffffffff1602179055506118ed806100656000396000f3fe60806040526004361061007b5760003560e01c8063bfb231d21161004e578063bfb231d21461013c578063d6febde81461017e578063e491d6a71461019a578063ef9af84a146101c35761007b565b80632e2dc43e146100805780636bfb0d01146100ab5780639252fa8f146100d65780639bddc4f7146100ff575b600080fd5b34801561008c57600080fd5b506100956101ee565b6040516100a29190611334565b60405180910390f35b3480156100b757600080fd5b506100c06103cc565b6040516100cd9190611376565b60405180910390f35b3480156100e257600080fd5b506100fd60048036038101906100f89190611107565b6103d2565b005b34801561010b57600080fd5b506101266004803603810190610121919061100c565b6104e8565b6040516101339190611376565b60405180910390f35b34801561014857600080fd5b50610163600480360381019061015e9190611107565b61050d565b604051610175969594939291906113c8565b60405180910390f35b61019860048036038101906101939190611130565b6106e1565b005b3480156101a657600080fd5b506101c160048036038101906101bc9190611048565b610d77565b005b3480156101cf57600080fd5b506101d8610e91565b6040516101e59190611376565b60405180910390f35b6060600560003373ffffffffffffffffffffffffffffffffffffffff1673ffffffffffffffffffffffffffffffffffffffff168152602001908152602001600020805480602002602001604051908101604052809291908181526020016000905b828210156103c357838290600052602060002090600502016040518060a00160405290816000820154815260200160018201805461028c906116e7565b80601f01602080910402602001604051908101604052809291908181526020018280546102b8906116e7565b80156103055780601f106102da57610100808354040283529160200191610305565b820191906000526020600020905b8154815290600101906020018083116102e857829003601f168201915b505050505081526020016002820154815260200160038201548152602001600482018054610332906116e7565b80601f016020809104026020016040519081016040528092919081815260200182805461035e906116e7565b80156103ab5780601f10610380576101008083540402835291602001916103ab565b820191906000526020600020905b81548152906001019060200180831161038e57829003601f168201915b5050505050815250508152602001906001019061024f565b50505050905090565b60005481565b6000600460003373ffffffffffffffffffffffffffffffffffffffff1673ffffffffffffffffffffffffffffffffffffffff1681526020019081526020016000206000838152602001908152602001600020549050600260009054906101000a900473ffffffffffffffffffffffffffffffffffffffff1673ffffffffffffffffffffffffffffffffffffffff166108fc829081150290604051600060405180830381858888f1935050505015801561048f573d6000803e3d6000fd5b50600460003373ffffffffffffffffffffffffffffffffffffffff1673ffffffffffffffffffffffffffffffffffffffff1681526020019081526020016000206000838152602001908152602001600020600090555050565b6004602052816000526040600020602052806000526040600020600091509150505481565b6003602052806000526040600020600091509050806000015490806001018054610536906116e7565b80601f0160208091040260200160405190810160405280929190818152602001828054610562906116e7565b80156105af5780601f10610584576101008083540402835291602001916105af565b820191906000526020600020905b81548152906001019060200180831161059257829003601f168201915b5050505050908060020180546105c4906116e7565b80601f01602080910402602001604051908101604052809291908181526020018280546105f0906116e7565b801561063d5780601f106106125761010080835404028352916020019161063d565b820191906000526020600020905b81548152906001019060200180831161062057829003601f168201915b50505050509080600301549080600401549080600501805461065e906116e7565b80601f016020809104026020016040519081016040528092919081815260200182805461068a906116e7565b80156106d75780601f106106ac576101008083540402835291602001916106d7565b820191906000526020600020905b8154815290600101906020018083116106ba57829003601f168201915b5050505050905086565b6000600360008481526020019081526020016000206040518060c00160405290816000820154815260200160018201805461071b906116e7565b80601f0160208091040260200160405190810160405280929190818152602001828054610747906116e7565b80156107945780601f1061076957610100808354040283529160200191610794565b820191906000526020600020905b81548152906001019060200180831161077757829003601f168201915b505050505081526020016002820180546107ad906116e7565b80601f01602080910402602001604051908101604052809291908181526020018280546107d9906116e7565b80156108265780601f106107fb57610100808354040283529160200191610826565b820191906000526020600020905b81548152906001019060200180831161080957829003601f168201915b505050505081526020016003820154815260200160048201548152602001600582018054610853906116e7565b80601f016020809104026020016040519081016040528092919081815260200182805461087f906116e7565b80156108cc5780601f106108a1576101008083540402835291602001916108cc565b820191906000526020600020905b8154815290600101906020018083116108af57829003601f168201915b505050505081525050905081670de0b6b3a764000082606001516108f091906115aa565b6108fa91906115db565b34101561093c576040517f08c379a000000000000000000000000000000000000000000000000000000000815260040161093390611356565b60405180910390fd5b34600460003373ffffffffffffffffffffffffffffffffffffffff1673ffffffffffffffffffffffffffffffffffffffff1681526020019081526020016000206000858152602001908152602001600020819055507fb7cecdc145bd2c896184831bf3acb5825b0713d6ed9d8a70c617259d558ab2d4816000015133346040516109c893929190611391565b60405180910390a1816003600085815260200190815260200160002060040160008282546109f69190611635565b92505081905550600060036000858152602001908152602001600020600401541415610a7b5760036000848152602001908152602001600020600080820160009055600182016000610a489190610e97565b600282016000610a589190610e97565b60038201600090556004820160009055600582016000610a789190610e97565b50505b60008080600090505b600560003373ffffffffffffffffffffffffffffffffffffffff1673ffffffffffffffffffffffffffffffffffffffff16815260200190815260200160002080549050811015610b8b5785600560003373ffffffffffffffffffffffffffffffffffffffff1673ffffffffffffffffffffffffffffffffffffffff1681526020019081526020016000208281548110610b46577f4e487b7100000000000000000000000000000000000000000000000000000000600052603260045260246000fd5b90600052602060002090600502016000015414610b70578280610b689061174a565b935050610b78565b809150610b8b565b8080610b839061174a565b915050610a84565b50600560003373ffffffffffffffffffffffffffffffffffffffff1673ffffffffffffffffffffffffffffffffffffffff16815260200190815260200160002080549050821415610cd057600560003373ffffffffffffffffffffffffffffffffffffffff1673ffffffffffffffffffffffffffffffffffffffff1681526020019081526020016000206040518060a0016040528087815260200185604001518152602001856060015181526020018681526020018560a001518152509080600181540180825580915050600190039060005260206000209060050201600090919091909150600082015181600001556020820151816001019080519060200190610c97929190610ed7565b5060408201518160020155606082015181600301556080820151816004019080519060200190610cc8929190610ed7565b505050610d70565b83600560003373ffffffffffffffffffffffffffffffffffffffff1673ffffffffffffffffffffffffffffffffffffffff1681526020019081526020016000208281548110610d48577f4e487b7100000000000000000000000000000000000000000000000000000000600052603260045260246000fd5b90600052602060002090600502016003016000828254610d689190611554565b925050819055505b5050505050565b600080815480929190610d899061174a565b91905055506040518060c001604052806000548152602001868152602001858152602001848152602001838152602001828152506003600080548152602001908152602001600020600082015181600001556020820151816001019080519060200190610df7929190610ed7565b506040820151816002019080519060200190610e14929190610ed7565b50606082015181600301556080820151816004015560a0820151816005019080519060200190610e45929190610ed7565b509050507ffc6ab05debfcac4824e379e6562534b8f17bdaae10f1bc7a6cf3881f7f41d98760005485858533604051610e8295949392919061143e565b60405180910390a15050505050565b60015481565b508054610ea3906116e7565b6000825580601f10610eb55750610ed4565b601f016020900490600052602060002090810190610ed39190610f5d565b5b50565b828054610ee3906116e7565b90600052602060002090601f016020900481019282610f055760008555610f4c565b82601f10610f1e57805160ff1916838001178555610f4c565b82800160010185558215610f4c579182015b82811115610f4b578251825591602001919060010190610f30565b5b509050610f599190610f5d565b5090565b5b80821115610f76576000816000905550600101610f5e565b5090565b6000610f8d610f88846114bd565b611498565b905082815260208101848484011115610fa557600080fd5b610fb08482856116a5565b509392505050565b600081359050610fc781611889565b92915050565b600082601f830112610fde57600080fd5b8135610fee848260208601610f7a565b91505092915050565b600081359050611006816118a0565b92915050565b6000806040838503121561101f57600080fd5b600061102d85828601610fb8565b925050602061103e85828601610ff7565b9150509250929050565b600080600080600060a0868803121561106057600080fd5b600086013567ffffffffffffffff81111561107a57600080fd5b61108688828901610fcd565b955050602086013567ffffffffffffffff8111156110a357600080fd5b6110af88828901610fcd565b94505060406110c088828901610ff7565b93505060606110d188828901610ff7565b925050608086013567ffffffffffffffff8111156110ee57600080fd5b6110fa88828901610fcd565b9150509295509295909350565b60006020828403121561111957600080fd5b600061112784828501610ff7565b91505092915050565b6000806040838503121561114357600080fd5b600061115185828601610ff7565b925050602061116285828601610ff7565b9150509250929050565b60006111788383611299565b905092915050565b61118981611669565b82525050565b600061119a826114fe565b6111a48185611521565b9350836020820285016111b6856114ee565b8060005b858110156111f257848403895281516111d3858261116c565b94506111de83611514565b925060208a019950506001810190506111ba565b50829750879550505050505092915050565b600061120f82611509565b6112198185611532565b93506112298185602086016116b4565b6112328161184f565b840191505092915050565b600061124882611509565b6112528185611543565b93506112628185602086016116b4565b61126b8161184f565b840191505092915050565b6000611283601483611543565b915061128e82611860565b602082019050919050565b600060a0830160008301516112b16000860182611316565b50602083015184820360208601526112c98282611204565b91505060408301516112de6040860182611316565b5060608301516112f16060860182611316565b50608083015184820360808601526113098282611204565b9150508091505092915050565b61131f8161169b565b82525050565b61132e8161169b565b82525050565b6000602082019050818103600083015261134e818461118f565b905092915050565b6000602082019050818103600083015261136f81611276565b9050919050565b600060208201905061138b6000830184611325565b92915050565b60006060820190506113a66000830186611325565b6113b36020830185611180565b6113c06040830184611325565b949350505050565b600060c0820190506113dd6000830189611325565b81810360208301526113ef818861123d565b90508181036040830152611403818761123d565b90506114126060830186611325565b61141f6080830185611325565b81810360a0830152611431818461123d565b9050979650505050505050565b600060a0820190506114536000830188611325565b8181036020830152611465818761123d565b90506114746040830186611325565b6114816060830185611325565b61148e6080830184611180565b9695505050505050565b60006114a26114b3565b90506114ae8282611719565b919050565b6000604051905090565b600067ffffffffffffffff8211156114d8576114d7611820565b5b6114e18261184f565b9050602081019050919050565b6000819050602082019050919050565b600081519050919050565b600081519050919050565b6000602082019050919050565b600082825260208201905092915050565b600082825260208201905092915050565b600082825260208201905092915050565b600061155f8261169b565b915061156a8361169b565b9250827fffffffffffffffffffffffffffffffffffffffffffffffffffffffffffffffff0382111561159f5761159e611793565b5b828201905092915050565b60006115b58261169b565b91506115c08361169b565b9250826115d0576115cf6117c2565b5b828204905092915050565b60006115e68261169b565b91506115f18361169b565b9250817fffffffffffffffffffffffffffffffffffffffffffffffffffffffffffffffff048311821515161561162a57611629611793565b5b828202905092915050565b60006116408261169b565b915061164b8361169b565b92508282101561165e5761165d611793565b5b828203905092915050565b60006116748261167b565b9050919050565b600073ffffffffffffffffffffffffffffffffffffffff82169050919050565b6000819050919050565b82818337600083830152505050565b60005b838110156116d25780820151818401526020810190506116b7565b838111156116e1576000848401525b50505050565b600060028204905060018216806116ff57607f821691505b60208210811415611713576117126117f1565b5b50919050565b6117228261184f565b810181811067ffffffffffffffff8211171561174157611740611820565b5b80604052505050565b60006117558261169b565b91507fffffffffffffffffffffffffffffffffffffffffffffffffffffffffffffffff82141561178857611787611793565b5b600182019050919050565b7f4e487b7100000000000000000000000000000000000000000000000000000000600052601160045260246000fd5b7f4e487b7100000000000000000000000000000000000000000000000000000000600052601260045260246000fd5b7f4e487b7100000000000000000000000000000000000000000000000000000000600052602260045260246000fd5b7f4e487b7100000000000000000000000000000000000000000000000000000000600052604160045260246000fd5b6000601f19601f8301169050919050565b7f696e73756666696369656e742062616c616e6365000000000000000000000000600082015250565b61189281611669565b811461189d57600080fd5b50565b6118a98161169b565b81146118b457600080fd5b5056fea26469706673582212202644600d31b142e6866a2651b963188f73c7f65f7133b2ee199a3754dcc0551464736f6c63430008040033",
  "immutableReferences": {},
  "source": "// SPDX-License-Identifier: MIT\r\npragma solidity ^0.8.4;\r\npragma experimental ABIEncoderV2;\r\n\r\ncontract OnSale {\r\n\r\n    uint public itemCount = 0;\r\n    uint public oredrCount;\r\n    address payable owner;\r\n\r\n    mapping(uint => userItem) public items;\r\n    mapping(address => mapping(uint => uint) ) public pendingAmount;\r\n    mapping(address => orderInfo[])  orders;\r\n\r\n    struct userItem {\r\n        uint id;\r\n        string category;\r\n        string product;\r\n        uint price;\r\n        uint quantity;\r\n        string imageHash;\r\n    }\r\n\r\n    struct orderInfo{\r\n        uint id;\r\n        string product;\r\n        uint price;\r\n        uint quantity;\r\n        string imageHash;\r\n    }\r\n\r\n    event itemAdded (\r\n        uint id,\r\n        string product,\r\n        uint price,\r\n        uint quantity,\r\n        address owner\r\n    );\r\n\r\n    event productBought (\r\n        uint id,\r\n        address buyer,\r\n        uint amount\r\n    );\r\n\r\n    constructor(){\r\n        owner = payable(msg.sender);\r\n    }\r\n\r\n    function addItem(string memory _category, string memory _product, uint _price, uint _quantity,string memory _imageHash) public {\r\n        itemCount++;\r\n        items[itemCount] = userItem(itemCount,_category,_product,_price,_quantity,_imageHash);\r\n        emit itemAdded(itemCount, _product, _price, _quantity, msg.sender);\r\n    }\r\n\r\n    function buy(uint _id, uint _quantity) public payable {\r\n        userItem memory itemSelected = items[_id];\r\n        \r\n        require(msg.value >= ((itemSelected.price/1 ether)*_quantity), \"insufficient balance\");\r\n        \r\n        pendingAmount[msg.sender][_id] = msg.value; \r\n\r\n        emit productBought(itemSelected.id,msg.sender,msg.value);\r\n        \r\n        items[_id].quantity-=_quantity;\r\n        if( items[_id].quantity == 0){\r\n            delete items[_id];\r\n        }\r\n\r\n        uint count = 0;\r\n        uint index;\r\n        for(uint i=0;i<orders[msg.sender].length;i++){\r\n            if(orders[msg.sender][i].id != _id){\r\n                count++;\r\n            }else{\r\n                index=i;\r\n                break;\r\n            }\r\n              \r\n        }\r\n\r\n        if(count== orders[msg.sender].length){\r\n            orders[msg.sender].push(\r\n              orderInfo(_id,itemSelected.product,itemSelected.price,_quantity,itemSelected.imageHash)\r\n              );\r\n        }else{\r\n            orders[msg.sender][index].quantity+=_quantity;\r\n        }\r\n        \r\n    }\r\n\r\n    function getOrders() public view returns(orderInfo [] memory){\r\n        return orders[msg.sender];\r\n    }\r\n\r\n    function paymentApproved(uint _id) public {\r\n        uint amountPending = pendingAmount[msg.sender][_id];\r\n        owner.transfer(amountPending);\r\n        delete pendingAmount[msg.sender][_id];\r\n    }\r\n\r\n\r\n}\r\n\r\n",
  "sourcePath": "C:\\Users\\adity\\trfl\\src\\contracts\\OnSaleContract.sol",
  "compiler": {
    "name": "solc",
    "version": "0.8.4+commit.c7e474f2.Emscripten.clang"
  },
  "schemaVersion": "3.4.9",
  "updatedAt": "2023-06-03T12:44:42.729Z",
  "devdoc": {
    "kind": "dev",
    "methods": {},
    "version": 1
  },
  "userdoc": {
    "kind": "user",
    "methods": {},
    "version": 1
  }
}